{"abi":[{"type":"constructor","inputs":[{"name":"name","type":"string","internalType":"string"},{"name":"version","type":"string","internalType":"string"},{"name":"_distributionSC","type":"address","internalType":"address"},{"name":"_commissionRate","type":"uint256","internalType":"uint256"}],"stateMutability":"nonpayable"},{"type":"fallback","stateMutability":"payable"},{"type":"receive","stateMutability":"payable"},{"type":"function","name":"BPS","inputs":[],"outputs":[{"name":"","type":"uint256","internalType":"uint256"}],"stateMutability":"view"},{"type":"function","name":"ORDER_TYPEHASH","inputs":[],"outputs":[{"name":"","type":"bytes32","internalType":"bytes32"}],"stateMutability":"view"},{"type":"function","name":"PRICEQUOTE_TYPEHASH","inputs":[],"outputs":[{"name":"","type":"bytes32","internalType":"bytes32"}],"stateMutability":"view"},{"type":"function","name":"checkServiceActive","inputs":[{"name":"serviceId","type":"uint128","internalType":"uint128"}],"outputs":[{"name":"","type":"bool","internalType":"bool"}],"stateMutability":"view"},{"type":"function","name":"claim","inputs":[{"name":"token","type":"address","internalType":"address"},{"name":"claimAmount","type":"uint256","internalType":"uint256"}],"outputs":[],"stateMutability":"nonpayable"},{"type":"function","name":"commissionRate","inputs":[],"outputs":[{"name":"","type":"uint256","internalType":"uint256"}],"stateMutability":"view"},{"type":"function","name":"createService","inputs":[{"name":"serviceId","type":"uint128","internalType":"uint128"},{"name":"seller","type":"address","internalType":"address"}],"outputs":[],"stateMutability":"nonpayable"},{"type":"function","name":"distributionSC","inputs":[],"outputs":[{"name":"","type":"address","internalType":"address"}],"stateMutability":"view"},{"type":"function","name":"getProfit","inputs":[{"name":"caller","type":"address","internalType":"address"},{"name":"token","type":"address","internalType":"address"}],"outputs":[{"name":"","type":"uint256","internalType":"uint256"}],"stateMutability":"view"},{"type":"function","name":"getSeller","inputs":[{"name":"serviceId","type":"uint128","internalType":"uint128"}],"outputs":[{"name":"","type":"address","internalType":"address"}],"stateMutability":"view"},{"type":"function","name":"nextNonce","inputs":[{"name":"user","type":"address","internalType":"address"}],"outputs":[{"name":"","type":"uint256","internalType":"uint256"}],"stateMutability":"view"},{"type":"function","name":"nonces","inputs":[{"name":"owner","type":"address","internalType":"address"}],"outputs":[{"name":"","type":"uint256","internalType":"uint256"}],"stateMutability":"view"},{"type":"function","name":"owner","inputs":[],"outputs":[{"name":"","type":"address","internalType":"address"}],"stateMutability":"view"},{"type":"function","name":"pause","inputs":[],"outputs":[],"stateMutability":"nonpayable"},{"type":"function","name":"paused","inputs":[],"outputs":[{"name":"","type":"bool","internalType":"bool"}],"stateMutability":"view"},{"type":"function","name":"payWithEIP712","inputs":[{"name":"order","type":"tuple","internalType":"struct RecipientHandler.Order","components":[{"name":"buyer","type":"address","internalType":"address"},{"name":"payTo","type":"address","internalType":"address"},{"name":"paymentToken","type":"address","internalType":"address"},{"name":"totalAmount","type":"uint256","internalType":"uint256"},{"name":"nonce","type":"uint256","internalType":"uint256"},{"name":"quoteId","type":"bytes32","internalType":"bytes32"},{"name":"serviceId","type":"uint128","internalType":"uint128"},{"name":"deadline","type":"uint64","internalType":"uint64"}]},{"name":"sig","type":"bytes","internalType":"bytes"},{"name":"quote","type":"tuple","internalType":"struct RecipientHandler.PriceQuote","components":[{"name":"quoteId","type":"bytes32","internalType":"bytes32"},{"name":"paymentToken","type":"address","internalType":"address"},{"name":"seller","type":"address","internalType":"address"},{"name":"price","type":"uint256","internalType":"uint256"},{"name":"cost","type":"uint256","internalType":"uint256"},{"name":"serviceId","type":"uint128","internalType":"uint128"},{"name":"expiry","type":"uint64","internalType":"uint64"}]},{"name":"sellerQuoteSig","type":"bytes","internalType":"bytes"},{"name":"permit2612","type":"bytes","internalType":"bytes"},{"name":"permit2Data","type":"bytes","internalType":"bytes"}],"outputs":[],"stateMutability":"nonpayable"},{"type":"function","name":"renounceOwnership","inputs":[],"outputs":[],"stateMutability":"nonpayable"},{"type":"function","name":"revokeQuote","inputs":[{"name":"quote","type":"tuple","internalType":"struct RecipientHandler.PriceQuote","components":[{"name":"quoteId","type":"bytes32","internalType":"bytes32"},{"name":"paymentToken","type":"address","internalType":"address"},{"name":"seller","type":"address","internalType":"address"},{"name":"price","type":"uint256","internalType":"uint256"},{"name":"cost","type":"uint256","internalType":"uint256"},{"name":"serviceId","type":"uint128","internalType":"uint128"},{"name":"expiry","type":"uint64","internalType":"uint64"}]},{"name":"sellerQuoteSig","type":"bytes","internalType":"bytes"}],"outputs":[],"stateMutability":"nonpayable"},{"type":"function","name":"revokedQuote","inputs":[{"name":"","type":"bytes32","internalType":"bytes32"}],"outputs":[{"name":"","type":"bool","internalType":"bool"}],"stateMutability":"view"},{"type":"function","name":"setCommissionRate","inputs":[{"name":"_commissionRate","type":"uint256","internalType":"uint256"}],"outputs":[],"stateMutability":"nonpayable"},{"type":"function","name":"setDistributionSC","inputs":[{"name":"_distributionSC","type":"address","internalType":"address"}],"outputs":[],"stateMutability":"nonpayable"},{"type":"function","name":"setServiceActive","inputs":[{"name":"serviceId","type":"uint128","internalType":"uint128"}],"outputs":[],"stateMutability":"nonpayable"},{"type":"function","name":"transferOwnership","inputs":[{"name":"newOwner","type":"address","internalType":"address"}],"outputs":[],"stateMutability":"nonpayable"},{"type":"function","name":"unpause","inputs":[],"outputs":[],"stateMutability":"nonpayable"},{"type":"function","name":"unrevokeQuote","inputs":[{"name":"quote","type":"tuple","internalType":"struct RecipientHandler.PriceQuote","components":[{"name":"quoteId","type":"bytes32","internalType":"bytes32"},{"name":"paymentToken","type":"address","internalType":"address"},{"name":"seller","type":"address","internalType":"address"},{"name":"price","type":"uint256","internalType":"uint256"},{"name":"cost","type":"uint256","internalType":"uint256"},{"name":"serviceId","type":"uint128","internalType":"uint128"},{"name":"expiry","type":"uint64","internalType":"uint64"}]},{"name":"sellerQuoteSig","type":"bytes","internalType":"bytes"}],"outputs":[],"stateMutability":"nonpayable"},{"type":"event","name":"CreatedService","inputs":[{"name":"seller","type":"address","indexed":true,"internalType":"address"},{"name":"serviceId","type":"uint128","indexed":true,"internalType":"uint128"}],"anonymous":false},{"type":"event","name":"OwnershipTransferred","inputs":[{"name":"previousOwner","type":"address","indexed":true,"internalType":"address"},{"name":"newOwner","type":"address","indexed":true,"internalType":"address"}],"anonymous":false},{"type":"event","name":"Paused","inputs":[{"name":"account","type":"address","indexed":false,"internalType":"address"}],"anonymous":false},{"type":"event","name":"QuoteRevoked","inputs":[{"name":"seller","type":"address","indexed":true,"internalType":"address"},{"name":"quoteId","type":"bytes32","indexed":true,"internalType":"bytes32"}],"anonymous":false},{"type":"event","name":"QuoteUnrevoked","inputs":[{"name":"seller","type":"address","indexed":true,"internalType":"address"},{"name":"quoteId","type":"bytes32","indexed":true,"internalType":"bytes32"}],"anonymous":false},{"type":"event","name":"SellerClaimed","inputs":[{"name":"seller","type":"address","indexed":true,"internalType":"address"},{"name":"token","type":"address","indexed":true,"internalType":"address"},{"name":"claimAmount","type":"uint256","indexed":false,"internalType":"uint256"}],"anonymous":false},{"type":"event","name":"Unpaused","inputs":[{"name":"account","type":"address","indexed":false,"internalType":"address"}],"anonymous":false},{"type":"event","name":"UserPaid","inputs":[{"name":"buyer","type":"address","indexed":true,"internalType":"address"},{"name":"seller","type":"address","indexed":true,"internalType":"address"},{"name":"totalAmount","type":"uint256","indexed":false,"internalType":"uint256"},{"name":"serviceId","type":"uint128","indexed":false,"internalType":"uint128"}],"anonymous":false},{"type":"error","name":"BadParas","inputs":[]},{"type":"error","name":"DuplicatedServiceId","inputs":[]},{"type":"error","name":"ECDSAInvalidSignature","inputs":[]},{"type":"error","name":"ECDSAInvalidSignatureLength","inputs":[{"name":"length","type":"uint256","internalType":"uint256"}]},{"type":"error","name":"ECDSAInvalidSignatureS","inputs":[{"name":"s","type":"bytes32","internalType":"bytes32"}]},{"type":"error","name":"EnforcedPause","inputs":[]},{"type":"error","name":"ExpectedPause","inputs":[]},{"type":"error","name":"InactivateService","inputs":[]},{"type":"error","name":"InsufficientBal","inputs":[]},{"type":"error","name":"InvalidAccountNonce","inputs":[{"name":"account","type":"address","internalType":"address"},{"name":"currentNonce","type":"uint256","internalType":"uint256"}]},{"type":"error","name":"NotBuyer","inputs":[]},{"type":"error","name":"NotPayTo","inputs":[]},{"type":"error","name":"NotSeller","inputs":[]},{"type":"error","name":"OwnableInvalidOwner","inputs":[{"name":"owner","type":"address","internalType":"address"}]},{"type":"error","name":"OwnableUnauthorizedAccount","inputs":[{"name":"account","type":"address","internalType":"address"}]},{"type":"error","name":"PriceMismatch","inputs":[]},{"type":"error","name":"QuoteRevoked","inputs":[]},{"type":"error","name":"SafeERC20FailedOperation","inputs":[{"name":"token","type":"address","internalType":"address"}]},{"type":"error","name":"ServiceNotExists","inputs":[]},{"type":"error","name":"SigExpired","inputs":[]},{"type":"error","name":"WrongCost","inputs":[]},{"type":"error","name":"ZeroAddress","inputs":[]},{"type":"error","name":"ZeroAmount","inputs":[]}],"bytecode":{"object":"0x60c060409080825234620002015762001dfb803803809162000022828562000205565b8339810190608081830312620002015780516001600160401b03908181116200020157836200005391840162000229565b9260208301519082821162000201576200006f91840162000229565b828501516001600160a01b03808216949091859003620002015760600151943315620001ea575f54610100600160a81b033360081b16610100600160a81b03198216175f55875192339160081c167f8be0079c531659141344cd1fd0a4f28419497f9722a3daafe3b4186f6b6457e05f80a3600160ff1960085416176008554660805260208151910120916020815191012060208201927fde0c3ca528945d6f9e94c722c100d1cb0cd11ee5a3660d7fbec484863ea30b0d84528783015260608201524660808201523060a082015260a0815260c081019281841090841117620001d65782865251902060a0528115620001c75750600680546001600160a01b03191691909117905580158015620001bb575b620001aa5760075551611b5d90816200029e8239608051816114ed015260a051816115240152f35b81516317c6e03360e01b8152600490fd5b50612710811162000182565b63d92e233d60e01b8152600490fd5b634e487b7160e01b5f52604160045260245ffd5b8651631e4fbdf760e01b81525f6004820152602490fd5b5f80fd5b601f909101601f19168101906001600160401b03821190821017620001d657604052565b919080601f84011215620002015782516001600160401b038111620001d657602090604051926200026483601f19601f850116018562000205565b81845282828701011162000201575f5b818110620002895750825f9394955001015290565b85810183015184820184015282016200027456fe60806040526004361015610018575b3661148f5761148f565b5f803560e01c80630cd55abf14610df557806319fac8fd146110eb5780631d9021ea146110ab578063249d39e91461108f5780632e87f9b31461103a5780633eb53b0a1461100b5780633f4ba83a14610fa45780635c975abb14610f835780635ea1d6f814610f665780636b8569b914610f1a5780636dfda2d214610edd578063715018a614610e82578063759eee1014610e355780637ecebe0014610df55780638456cb5914610d9e57806385cb0046146105e05780638da5cb5b146105b5578063aad3ec96146104bb578063bdceb22714610492578063c8de02951461037b578063caf43b9914610340578063d94ee1fb14610280578063e810c61a14610210578063f2fde38b146101735763f973a20914610136575061000e565b3461017057806003193601126101705760206040517f6a169eb5bcf9f94fa7f6fc439beee5ab3fa746bd6bb0b0527c399ba7175d9bcd8152f35b80fd5b50346101705760203660031901126101705761018d611124565b6101956114bd565b6001600160a01b038181169182156101f7575f8054610100600160a81b03198116600893841b610100600160a81b031617825590911c91909116907f8be0079c531659141344cd1fd0a4f28419497f9722a3daafe3b4186f6b6457e09080a380f35b604051631e4fbdf760e01b815260048101859052602490fd5b5034610170576020366003190112610170576001600160801b03610232611150565b16808252600460205260408220546001600160a01b0316330361026e578152600360205260408120805460ff80821615169060ff191617905580f35b604051635ec8235160e01b8152600490fd5b50346101705760403660031901126101705761029a611150565b6001600160801b036102aa61113a565b916102b36114bd565b168083526004602052604083205490916001600160a01b0391821661032e5716801561031c5781835260046020526040832080546001600160a01b031916821790557f546c067da3f798b91fce34fdfc48ebf677546a5affc23174ad97b26bdb5703c48380a380f35b60405163d92e233d60e01b8152600490fd5b604051632347a8d160e11b8152600490fd5b503461017057806003193601126101705760206040517fc2f2e426e881bccdbd0a0e1b96d0c609e2b056f01a3e9e1513f2ccf771d630e28152f35b50346101705761041c61045361042561044b61039636611193565b823596916104169061040e6103ad6020870161123e565b8a61040660408901986103f86103c28b61123e565b916103cf60a0820161127f565b6103db60c083016112c0565b91604051968795602087019960606080850135940135928b6112d4565b03601f198101835282611364565b5190206114eb565b9236916113a0565b90611915565b9094919461194f565b6001600160a01b039261044690848061043d8561123e565b169116146113d6565b61123e565b163314611410565b808252600560205260408220805460ff19166001179055337fe2be7fcf3e669118ccee90a54cd906aff96c0ee27e179d5ec676af9226134d988380a380f35b50346101705780600319360112610170576006546040516001600160a01b039091168152602090f35b5034610170576040366003190112610170576104d5611124565b600854602435916104eb60ff831660011461144d565b60ff199182166002176008556001600160a01b0316801561031c5782156105a357338452600260205260408420815f526020528260405f20541061059157600192338552600260205260408520825f5260205260405f2061054d828254611482565b905561055a8133846118d2565b6040519081527f2bf02d6d75d9b14d676d6ebd1d6317d0428c494a40d1c723211fedcee4116fff60203392a3600854161760085580f35b604051631ea447d760e31b8152600490fd5b604051631f2a200560e01b8152600490fd5b50346101705780600319360112610170575460405160089190911c6001600160a01b03168152602090f35b5034610b845736600319016102608112610b845761010013610b8457610104356001600160401b038111610b845761061c903690600401611166565b60e036610123190112610b8457610204356001600160401b038111610b8457610649903690600401611166565b91610224356001600160401b038111610b845761066a903690600401611166565b939092610244356001600160401b038111610b845761068d903690600401611166565b93909660026008546106a4600160ff83161461144d565b60ff1916176008556106b46115a3565b6106bc611293565b6001600160401b0342911610610d10576106d46111ce565b306001600160a01b0390911603610d8c576001600160801b036106f5611252565b165f52600360205260ff60405f20541615610d7a576101243560a43503610d685761071e611252565b6001600160801b038061072f611268565b16911603610d685761073f6111e4565b6001600160a01b0361074f6111fa565b166001600160a01b0390911603610d68576101843560643503610d5657610124355f52600560205260ff60405f205416610d44576101a435158015610d34575b610d2257426001600160401b036107a46112a9565b1610610d10576107b2611211565b60018060a01b0381165f52600160205260405f20908154916001830190558160843503610ce55750506108b9916104166108b09261040e6107f1611211565b6107f96111ce565b6001600160801b036108096111e4565b610811611252565b9061081a611293565b604080517f6a169eb5bcf9f94fa7f6fc439beee5ab3fa746bd6bb0b0527c399ba7175d9bcd60208201526001600160a01b039788169181019190915294861660608601529416608084015260643560a084015260843560c084015260a43560e0840152166101008201526001600160401b039091166101208083019190915281526108a481611348565b602081519101206114eb565b9092919261194f565b6001600160a01b036108c9611211565b166001600160a01b0390911603610cd35761092e916104166108b09261040e6108f06111fa565b6108f8611227565b610406610903611268565b916103f861090f6112a9565b60405194859360208501976101a435916101843591610124358b6112d4565b6001600160a01b0361093e611227565b6001600160a01b039092169116810361026e576001600160801b03610961611252565b165f908152600460205260409020546001600160a01b0316908115610cc1570361026e575f9381610cae575b5050821580610ca5575b610c81575b505015610bbe575b6109ac611211565b6109b46111e4565b6109bc611227565b916109c5611252565b6001600160a01b039091169182158015610bad575b8015610b9c575b61031c5760018060a01b03166040516323b872dd60e01b60208201528360248201523060448201526101843560648201526064815260a08101908082106001600160401b03831117610b6557610a3a9160405282611a4b565b610a56610a4d6101a43561018435611482565b600754906119d2565b90610a648261018435611482565b9460018060a01b031694855f52600260205260405f20825f5260205260405f208054918201809211610b88575581610ae5575b505060407f0a94620a79e313bbbec37e76ef9025626646f83814f90ea1a75a75e4220ee938916001600160801b03825191610184358352166020820152a3600160ff19600854161760085580f35b600654610afd9183916001600160a01b0316906118d2565b6006546001600160a01b031690813b15610b84575f916044839260405194859384926370fd458160e11b845260048401528160248401525af18015610b7957610b47575b80610a97565b9093506001600160401b038111610b655760409081525f9390610b41565b634e487b7160e01b5f52604160045260245ffd5b6040513d5f823e3d90fd5b5f80fd5b634e487b7160e01b5f52601160045260245ffd5b506001600160a01b038416156109e1565b506001600160a01b038116156109da565b610bc66111e4565b6020610bd0611211565b604051636eb1769f60e11b81526001600160a01b0391821660048201523060248201529283916044918391165afa908115610b79575f91610c4f575b5060643511156109a45760405162461bcd60e51b8152602060048201526011602482015270414c4c4f57414e43455f4d495353494e4760781b6044820152606490fd5b90506020813d602011610c79575b81610c6a60209383611364565b81010312610b8457515f610c0c565b3d9150610c5d565b610c9e9250610c8e6111e4565b3090610c98611211565b90611669565b5f8061099c565b50811515610997565b610cb99294506115ef565b915f8061098d565b60405163e2148c7760e01b8152600490fd5b60405163239700bf60e11b8152600490fd5b6040516301d4b62360e61b81526001600160a01b039190911660048201526024810191909152604490fd5b604051633ba234a360e01b8152600490fd5b60405163c3761f2160e01b8152600490fd5b50610184356101a435101561078f565b604051634e6fdb7d60e11b8152600490fd5b60405163043a8b0160e41b8152600490fd5b6040516317c6e03360e01b8152600490fd5b60405163708c1ac160e01b8152600490fd5b604051631e4e4ee560e31b8152600490fd5b34610b84575f366003190112610b8457610db66114bd565b610dbe6115a3565b600160ff195f5416175f557f62e78cea01bee320cd4e420270b5ea74000d11b0c9f74754ebdbfc544b05a2586020604051338152a1005b34610b84576020366003190112610b84576020610e2d610e13611124565b6001600160a01b03165f9081526001602052604090205490565b604051908152f35b34610b84576040366003190112610b8457610e4e611124565b610e5661113a565b9060018060a01b038091165f52600260205260405f2091165f52602052602060405f2054604051908152f35b34610b84575f366003190112610b8457610e9a6114bd565b5f8054610100600160a81b03198116825560081c6001600160a01b03167f8be0079c531659141344cd1fd0a4f28419497f9722a3daafe3b4186f6b6457e08280a3005b34610b84576020366003190112610b84576001600160801b03610efe611150565b165f526003602052602060ff60405f2054166040519015158152f35b34610b84576020366003190112610b8457610f33611124565b610f3b6114bd565b6001600160a01b0316801561031c576bffffffffffffffffffffffff60a01b60065416176006555f80f35b34610b84575f366003190112610b84576020600754604051908152f35b34610b84575f366003190112610b8457602060ff5f54166040519015158152f35b34610b84575f366003190112610b8457610fbc6114bd565b5f5460ff811615610ff95760ff19165f557f5db9ee0a495bf2e6ff9c91a7834c1ba4fdd244a5e8aa4e537bd38aeae4b073aa6020604051338152a1005b604051638dfc202b60e01b8152600490fd5b34610b84576020366003190112610b84576004355f526005602052602060ff60405f2054166040519015158152f35b34610b845761041c61105461042561044b61039636611193565b805f52600560205260405f2060ff198154169055337fa586b5efcc456645779f22d1638490bb011c422f3e0a6b2f57ae0f8490fbeab95f80a3005b34610b84575f366003190112610b845760206040516127108152f35b34610b84576020366003190112610b84576001600160801b036110cc611150565b165f526004602052602060018060a01b0360405f205416604051908152f35b34610b84576020366003190112610b84576004356111076114bd565b80158015611119575b610d6857600755005b506127108111611110565b600435906001600160a01b0382168203610b8457565b602435906001600160a01b0382168203610b8457565b600435906001600160801b0382168203610b8457565b9181601f84011215610b84578235916001600160401b038311610b845760208381860195010111610b8457565b9060031982016101008112610b845760e013610b845760049160e435906001600160401b038211610b84576111ca91600401611166565b9091565b6024356001600160a01b0381168103610b845790565b6044356001600160a01b0381168103610b845790565b610144356001600160a01b0381168103610b845790565b6004356001600160a01b0381168103610b845790565b610164356001600160a01b0381168103610b845790565b356001600160a01b0381168103610b845790565b60c4356001600160801b0381168103610b845790565b6101c4356001600160801b0381168103610b845790565b356001600160801b0381168103610b845790565b60e4356001600160401b0381168103610b845790565b6101e4356001600160401b0381168103610b845790565b356001600160401b0381168103610b845790565b9590979692946001600160401b03946001600160801b039360e0976101008a019b7fc2f2e426e881bccdbd0a0e1b96d0c609e2b056f01a3e9e1513f2ccf771d630e28b5260208b015260018060a01b0380921660408b0152166060890152608088015260a08701521660c085015216910152565b61014081019081106001600160401b03821117610b6557604052565b90601f801991011681019081106001600160401b03821117610b6557604052565b6001600160401b038111610b6557601f01601f191660200190565b9291926113ac82611385565b916113ba6040519384611364565b829481845281830111610b84578281602093845f960137010152565b156113dd57565b60405162461bcd60e51b815260206004820152600b60248201526a42616451756f746553696760a81b6044820152606490fd5b1561141757565b60405162461bcd60e51b815260206004820152600e60248201526d2737ba28bab7ba32a9b2b63632b960911b6044820152606490fd5b1561145457565b60405162461bcd60e51b8152602060048201526006602482015265131bd8dad95960d21b6044820152606490fd5b91908203918211610b8857565b60405162461bcd60e51b815260206004820152600660248201526509cde408aa8960d31b6044820152606490fd5b5f5460081c6001600160a01b031633036114d357565b60405163118cdaa760e01b8152336004820152602490fd5b7f0000000000000000000000000000000000000000000000000000000000000000460361157057604051602081019161190160f01b83527f00000000000000000000000000000000000000000000000000000000000000006022830152604282015260428152608081018181106001600160401b03821117610b655760405251902090565b60405162461bcd60e51b815260206004820152600b60248201526a2bb937b7339021b430b4b760a91b6044820152606490fd5b60ff5f54166115ae57565b60405163d93c066560e01b8152600490fd5b3d156115ea573d906115d182611385565b916115df6040519384611364565b82523d5f602084013e565b606090565b811561162957815f92918392604051928392833781018381520390826e22d473030f116ddee9f6b43ac78ba35af16116256115c0565b5090565b50505f90565b35906001600160a01b0382168203610b8457565b359060ff82168203610b8457565b90816020910312610b8457518015158103610b845790565b9392906004918285106118c8578035946001600160e01b0319861663d505accf60e01b81036117c65750808411610b845760e09082018290036003190112610b84576116b683820161162f565b916116c36024830161162f565b946116d060848401611643565b6001600160a01b039485169690949081169281168714801592906117b9575b50506117ae5760c49260ff9160405196602088019889526024880152604487015260448301356064870152606483013560848701521660a485015260a481013582850152013560e483015260e482526101208201908282106001600160401b0383111761179b5750604052515f9283929083905af161176c6115c0565b901561179657805190811561178f5760208061178c938301019101611651565b90565b5050600190565b505f90565b604190634e487b7160e01b5f525260245ffd5b505050505050505f90565b1682141590505f806116ef565b929691959194919391926323f2ebc360e21b036117ae57808211610b84576101009086018690036003190112610b845761180190850161162f565b9361180e6024820161162f565b90608481013592831515809403610b845761182b60a48301611643565b6001600160a01b039384169890978416939081168414801592906118bb575b50506117ae5760ff5f97968897948895604051956020870198895260248701526044860152604484013560648601526064840135608486015260a48501521660c483015260c481013560e483015260e46101049101358183015281526118af81611348565b51925af161176c6115c0565b1688141590505f8061184a565b5050505050505f90565b60405163a9059cbb60e01b60208201526001600160a01b039290921660248301526044808301939093529181526119139161190e606483611364565b611a4b565b565b81519190604183036119455761193e9250602082015190606060408401519301515f1a90611aa5565b9192909190565b50505f9160029190565b60048110156119be5780611961575050565b6001810361197b5760405163f645eedf60e01b8152600490fd5b6002810361199c5760405163fce698f760e01b815260048101839052602490fd5b6003146119a65750565b602490604051906335e2f38360e21b82526004820152fd5b634e487b7160e01b5f52602160045260245ffd5b905f1981830981830291828083109203918083039214611a40576127109082821115611a2e577fbc01a36e2eb1c432ca57a786c226809d495182a9930be0ded288ce703afb7e91940990828211900360fc1b910360041c170290565b634e487b715f5260116020526024601cfd5b505061271091500490565b905f602091828151910182855af115610b79575f513d611a9c57506001600160a01b0381163b155b611a7a5750565b604051635274afe760e01b81526001600160a01b039091166004820152602490fd5b60011415611a73565b91907f7fffffffffffffffffffffffffffffff5d576e7357a4501ddfe92f46681b20a08411611b1c579160209360809260ff5f9560405194855216868401526040830152606082015282805260015afa15610b79575f516001600160a01b03811615611b1257905f905f90565b505f906001905f90565b5050505f916003919056fea2646970667358221220739c025e1a46ba3e52943aab06364541d5b0d1e89b7f674acf693b2e7812550e64736f6c63430008160033","linkReferences":{}},"methodIdentifiers":{"BPS()":"249d39e9","ORDER_TYPEHASH()":"f973a209","PRICEQUOTE_TYPEHASH()":"caf43b99","checkServiceActive(uint128)":"6dfda2d2","claim(address,uint256)":"aad3ec96","commissionRate()":"5ea1d6f8","createService(uint128,address)":"d94ee1fb","distributionSC()":"bdceb227","getProfit(address,address)":"759eee10","getSeller(uint128)":"1d9021ea","nextNonce(address)":"0cd55abf","nonces(address)":"7ecebe00","owner()":"8da5cb5b","pause()":"8456cb59","paused()":"5c975abb","payWithEIP712((address,address,address,uint256,uint256,bytes32,uint128,uint64),bytes,(bytes32,address,address,uint256,uint256,uint128,uint64),bytes,bytes,bytes)":"85cb0046","renounceOwnership()":"715018a6","revokeQuote((bytes32,address,address,uint256,uint256,uint128,uint64),bytes)":"c8de0295","revokedQuote(bytes32)":"3eb53b0a","setCommissionRate(uint256)":"19fac8fd","setDistributionSC(address)":"6b8569b9","setServiceActive(uint128)":"e810c61a","transferOwnership(address)":"f2fde38b","unpause()":"3f4ba83a","unrevokeQuote((bytes32,address,address,uint256,uint256,uint128,uint64),bytes)":"2e87f9b3"},"id":0}