{"abi":[{"type":"function","name":"distribute","inputs":[{"name":"amount","type":"uint256","internalType":"uint256"},{"name":"broker","type":"address","internalType":"address"}],"outputs":[],"stateMutability":"nonpayable"},{"type":"function","name":"lastAmount","inputs":[],"outputs":[{"name":"","type":"uint256","internalType":"uint256"}],"stateMutability":"view"},{"type":"function","name":"lastBroker","inputs":[],"outputs":[{"name":"","type":"address","internalType":"address"}],"stateMutability":"view"},{"type":"event","name":"Distributed","inputs":[{"name":"amount","type":"uint256","indexed":false,"internalType":"uint256"},{"name":"broker","type":"address","indexed":false,"internalType":"address"}],"anonymous":false}],"bytecode":{"object":"0x6080806040523461001657610122908161001b8239f35b5f80fdfe60808060405260043610156011575f80fd5b5f3560e01c9081634e0c0c141460cb57508063829a86d91460b15763e1fa8b02146039575f80fd5b3460ad57604036600319011260ad576004356024356001600160a01b0381169081900360ad57816040917f6f0c43eb568796d764f36f0413e491b0b334101cb8b6288756cd9b76a8c00f8a935f55806bffffffffffffffffffffffff60a01b600154161760015582519182526020820152a1005b5f80fd5b3460ad575f36600319011260ad5760205f54604051908152f35b3460ad575f36600319011260ad576001546001600160a01b03168152602090f3fea26469706673582212205efebb11bdf8b67f661f73ed6ad591bfd75f5f33e6f6cd634b145cccd1d82b6164736f6c63430008160033","linkReferences":{}},"methodIdentifiers":{"distribute(uint256,address)":"e1fa8b02","lastAmount()":"829a86d9","lastBroker()":"4e0c0c14"},"id":42}