{"abi":[{"type":"constructor","inputs":[{"name":"_handler","type":"address","internalType":"address"},{"name":"_victim","type":"address","internalType":"address"},{"name":"_enableAttack","type":"bool","internalType":"bool"},{"name":"_reentrantAmount","type":"uint256","internalType":"uint256"}],"stateMutability":"nonpayable"},{"type":"function","name":"allowance","inputs":[{"name":"owner","type":"address","internalType":"address"},{"name":"spender","type":"address","internalType":"address"}],"outputs":[{"name":"","type":"uint256","internalType":"uint256"}],"stateMutability":"view"},{"type":"function","name":"approve","inputs":[{"name":"spender","type":"address","internalType":"address"},{"name":"value","type":"uint256","internalType":"uint256"}],"outputs":[{"name":"","type":"bool","internalType":"bool"}],"stateMutability":"nonpayable"},{"type":"function","name":"balanceOf","inputs":[{"name":"account","type":"address","internalType":"address"}],"outputs":[{"name":"","type":"uint256","internalType":"uint256"}],"stateMutability":"view"},{"type":"function","name":"decimals","inputs":[],"outputs":[{"name":"","type":"uint8","internalType":"uint8"}],"stateMutability":"pure"},{"type":"function","name":"enableAttack","inputs":[],"outputs":[{"name":"","type":"bool","internalType":"bool"}],"stateMutability":"view"},{"type":"function","name":"handler","inputs":[],"outputs":[{"name":"","type":"address","internalType":"address"}],"stateMutability":"view"},{"type":"function","name":"mint","inputs":[{"name":"to","type":"address","internalType":"address"},{"name":"amount","type":"uint256","internalType":"uint256"}],"outputs":[],"stateMutability":"nonpayable"},{"type":"function","name":"name","inputs":[],"outputs":[{"name":"","type":"string","internalType":"string"}],"stateMutability":"view"},{"type":"function","name":"reentranAmount","inputs":[],"outputs":[{"name":"","type":"uint256","internalType":"uint256"}],"stateMutability":"view"},{"type":"function","name":"setReentrancy","inputs":[{"name":"enable","type":"bool","internalType":"bool"},{"name":"amount","type":"uint256","internalType":"uint256"}],"outputs":[],"stateMutability":"nonpayable"},{"type":"function","name":"symbol","inputs":[],"outputs":[{"name":"","type":"string","internalType":"string"}],"stateMutability":"view"},{"type":"function","name":"totalSupply","inputs":[],"outputs":[{"name":"","type":"uint256","internalType":"uint256"}],"stateMutability":"view"},{"type":"function","name":"transfer","inputs":[{"name":"to","type":"address","internalType":"address"},{"name":"amount","type":"uint256","internalType":"uint256"}],"outputs":[{"name":"","type":"bool","internalType":"bool"}],"stateMutability":"nonpayable"},{"type":"function","name":"transferFrom","inputs":[{"name":"from","type":"address","internalType":"address"},{"name":"to","type":"address","internalType":"address"},{"name":"amount","type":"uint256","internalType":"uint256"}],"outputs":[{"name":"","type":"bool","internalType":"bool"}],"stateMutability":"nonpayable"},{"type":"function","name":"victim","inputs":[],"outputs":[{"name":"","type":"address","internalType":"address"}],"stateMutability":"view"},{"type":"event","name":"Approval","inputs":[{"name":"owner","type":"address","indexed":true,"internalType":"address"},{"name":"spender","type":"address","indexed":true,"internalType":"address"},{"name":"value","type":"uint256","indexed":false,"internalType":"uint256"}],"anonymous":false},{"type":"event","name":"Transfer","inputs":[{"name":"from","type":"address","indexed":true,"internalType":"address"},{"name":"to","type":"address","indexed":true,"internalType":"address"},{"name":"value","type":"uint256","indexed":false,"internalType":"uint256"}],"anonymous":false},{"type":"error","name":"ERC20InsufficientAllowance","inputs":[{"name":"spender","type":"address","internalType":"address"},{"name":"allowance","type":"uint256","internalType":"uint256"},{"name":"needed","type":"uint256","internalType":"uint256"}]},{"type":"error","name":"ERC20InsufficientBalance","inputs":[{"name":"sender","type":"address","internalType":"address"},{"name":"balance","type":"uint256","internalType":"uint256"},{"name":"needed","type":"uint256","internalType":"uint256"}]},{"type":"error","name":"ERC20InvalidApprover","inputs":[{"name":"approver","type":"address","internalType":"address"}]},{"type":"error","name":"ERC20InvalidReceiver","inputs":[{"name":"receiver","type":"address","internalType":"address"}]},{"type":"error","name":"ERC20InvalidSender","inputs":[{"name":"sender","type":"address","internalType":"address"}]},{"type":"error","name":"ERC20InvalidSpender","inputs":[{"name":"spender","type":"address","internalType":"address"}]}],"bytecode":{"object":"0x6080346200038d57601f906001600160401b0390601f1962000dcc38819003858101831684019190858311858410176200029c578085926080946040528339810103126200038d576200005282620003b1565b9060209062000063828501620003b1565b946040850151948515158096036200038d5760600151966200008462000391565b600f81526e26b7b1b5a0ba3a30b1b5aa37b5b2b760891b85820152620000a962000391565b916003928381526213505560ea1b8782015282518581116200029c5784546001948582811c9216801562000382575b8a8310146200036e5781858493116200031b575b508990858311600114620002bc575f92620002b0575b50505f1982871b1c191690841b1784555b80519485116200029c5760049687548481811c9116801562000291575b828210146200027e5783811162000236575b5080928611600114620001ce5750849550908492915f95620001c2575b50501b925f19911b1c19161790555b600580546001600160a01b0319166001600160a01b03928316179055600680546001600160a81b031916939091169290921760a09190911b60ff60a01b16179055600755604051610a059081620003c78239f35b015193505f806200015f565b93929585908116885f52855f20955f905b898383106200021b575050501062000201575b50505050811b0190556200016e565b01519060f8845f19921b161c191690555f808080620001f2565b858701518955909701969485019488935090810190620001df565b885f52815f208480890160051c820192848a1062000274575b0160051c019085905b8281106200026857505062000142565b5f815501859062000258565b925081926200024f565b602289634e487b7160e01b5f525260245ffd5b90607f169062000130565b634e487b7160e01b5f52604160045260245ffd5b015190505f8062000102565b908987941691885f528b5f20925f5b8d828210620003045750508411620002ec575b505050811b01845562000113565b01515f1983891b60f8161c191690555f8080620002de565b8385015186558a97909501949384019301620002cb565b909150865f52895f208580850160051c8201928c861062000364575b918891869594930160051c01915b82811062000355575050620000ec565b5f815585945088910162000345565b9250819262000337565b634e487b7160e01b5f52602260045260245ffd5b91607f1691620000d8565b5f80fd5b60408051919082016001600160401b038111838210176200029c57604052565b51906001600160a01b03821682036200038d5756fe6080604090808252600480361015610015575f80fd5b5f3560e01c91826306fdde031461074757508163095ea7b31461069f57816318160ddd1461068157816321f161931461065b57816323b872dd146104b5578163313ce5671461049a5781633f04f1341461045a57816340c10f19146103b557816370a082311461037f578163930c20031461035757816395d89b4114610255578163a9059cbb1461015757508063c2d093ee14610139578063c80916d4146101115763dd62ed3e146100c5575f80fd5b3461010d578060031936011261010d576020906100e061087f565b6100e8610895565b9060018060a01b038091165f5260018452825f2091165f528252805f20549051908152f35b5f80fd5b503461010d575f36600319011261010d5760055490516001600160a01b039091168152602090f35b503461010d575f36600319011261010d576020906007549051908152f35b823461010d578060031936011261010d5761017061087f565b61017d60243582336108f5565b6006549060ff8260a01c169182610240575b82610229575b50508061021e575b6101ac575b6020905160018152f35b60018060a01b036005541691600754833b1561010d578251635569f64b60e11b8152309281019283526020830191909152925f9184919082908490829060400103925af191821561021457602092610205575b506101a2565b61020e906108ab565b826101ff565b50513d5f823e3d90fd5b50600754151561019d565b6001600160a01b0391821691161490508380610195565b6005546001600160a01b03163314925061018f565b823461010d575f36600319011261010d578051905f9280549060018260011c916001841693841561034d575b602094858510811461033a5784885290811561031857506001146102bf575b6102bb86866102b1828b03836108d3565b5191829182610838565b0390f35b5f9081529295507f8a35acfbc15ff81a39ae7d344fd709f28e8600b4aa8c65c6b64bfe7fe36bd19b5b82841061030557505050826102bb946102b19282010194866102a0565b80548685018801529286019281016102e8565b60ff191687860152505050151560051b83010192506102b1826102bb866102a0565b602283634e487b7160e01b5f525260245ffd5b92607f1692610281565b823461010d575f36600319011261010d5760065490516001600160a01b039091168152602090f35b823461010d57602036600319011261010d576020906001600160a01b036103a461087f565b165f525f8252805f20549051908152f35b823461010d578060031936011261010d576103ce61087f565b6001600160a01b03169160243591908315610445576002549083820180921161043257505f927fddf252ad1be2c89b69c2b068fc378daa952ba7f163c4a11628f55a4df523b3ef9260209260025585855284835280852082815401905551908152a3005b601190634e487b7160e01b5f525260245ffd5b5f602492519163ec442f0560e01b8352820152fd5b823461010d5736600319011261010d573580151580910361010d576006805460ff60a01b191660a09290921b60ff60a01b16919091179055602435600755005b823461010d575f36600319011261010d576020905160068152f35b823461010d57606036600319011261010d576104cf61087f565b6104d7610895565b6044359160018060a01b03928284831692835f526001602052865f20335f52602052865f20545f1981106105c7575b5061051193506108f5565b600654908260ff8360a01c1692836105b8575b836105a8575b5050508061059d575b610542575b6020825160018152f35b6005541691600754833b1561010d578251635569f64b60e11b8152309281019283526020830191909152925f9184919082908490829060400103925af1918215610214576020921561053857610597906108ab565b82610538565b506007541515610533565b819293501691161484828161052a565b92508060055416331492610524565b9150919283821061062e578015610618573315610602579183859261051195945f526001602052885f20335f5260205203875f205588610506565b8651634a1406b160e11b81525f818a0152602490fd5b865163e602df0560e01b81525f818a0152602490fd5b508551637dc7a0d960e11b8152338189019081526020810192909252604082018490529081906060010390fd5b823461010d575f36600319011261010d5760209060ff60065460a01c1690519015158152f35b823461010d575f36600319011261010d576020906002549051908152f35b823461010d578060031936011261010d576106b861087f565b602435903315610731576001600160a01b031690811561071b5760209350335f5260018452825f20825f52845280835f205582519081527f8c5be1e5ebec7d5bd14f71427d1e84f3dd0314c0f7b2291e5b200ac8c7c3b925843392a35160018152f35b8251634a1406b160e11b81525f81860152602490fd5b825163e602df0560e01b81525f81860152602490fd5b833461010d575f36600319011261010d575f9260035460018160011c9160018116801561082e575b602094858510821461081b57508387529081156107fb57506001146107a1575b5050506102b1826102bb9403836108d3565b60035f9081529295507fc2575a0e9e593c00f959f8c92f12db2869c3395a3b0502d05e2516446f71f85b5b8284106107e857505050826102bb946102b1928201019461078f565b80548685018801529286019281016107cc565b60ff1916868501525050151560051b83010192506102b1826102bb61078f565b602290634e487b7160e01b5f525260245ffd5b92607f169261076f565b602080825282518183018190529093925f5b82811061086b57505060409293505f838284010152601f8019910116010190565b81810186015184820160400152850161084a565b600435906001600160a01b038216820361010d57565b602435906001600160a01b038216820361010d57565b67ffffffffffffffff81116108bf57604052565b634e487b7160e01b5f52604160045260245ffd5b90601f8019910116810190811067ffffffffffffffff8211176108bf57604052565b916001600160a01b038084169283156109b7571692831561099f57825f525f60205260405f20549082821061096d5750817fddf252ad1be2c89b69c2b068fc378daa952ba7f163c4a11628f55a4df523b3ef92602092855f525f84520360405f2055845f5260405f20818154019055604051908152a3565b60405163391434e360e21b81526001600160a01b03919091166004820152602481019190915260448101829052606490fd5b60405163ec442f0560e01b81525f6004820152602490fd5b604051634b637e8f60e11b81525f6004820152602490fdfea2646970667358221220374bd26291ae02a7f20c6cb445d09c480e041f1f26fce8789a05c0cde81873a364736f6c63430008160033","linkReferences":{}},"methodIdentifiers":{"allowance(address,address)":"dd62ed3e","approve(address,uint256)":"095ea7b3","balanceOf(address)":"70a08231","decimals()":"313ce567","enableAttack()":"21f16193","handler()":"c80916d4","mint(address,uint256)":"40c10f19","name()":"06fdde03","reentranAmount()":"c2d093ee","setReentrancy(bool,uint256)":"3f04f134","symbol()":"95d89b41","totalSupply()":"18160ddd","transfer(address,uint256)":"a9059cbb","transferFrom(address,address,uint256)":"23b872dd","victim()":"930c2003"},"id":41}