{"abi":[{"type":"function","name":"PAUSE_ROLE","inputs":[],"outputs":[{"name":"","type":"bytes32","internalType":"bytes32"}],"stateMutability":"view"},{"type":"function","name":"SELLER_ROLE","inputs":[],"outputs":[{"name":"","type":"bytes32","internalType":"bytes32"}],"stateMutability":"view"},{"type":"function","name":"TEAM_ROLE","inputs":[],"outputs":[{"name":"","type":"bytes32","internalType":"bytes32"}],"stateMutability":"view"}],"bytecode":{"object":"0x6080806040523461001a5761010d908161001f823930815050f35b5f80fdfe60808060405260043610156011575f80fd5b5f3560e01c908163389ed2671460a55750806349d5e6041460715763dbe4613d146039575f80fd5b5f366003190112606d5760206040517f43f25613eb2f15fb17222a5d424ca2655743e71265d98e4b93c05e5fb589ecde8152f35b5f80fd5b5f366003190112606d5760206040517f5146a08baf902532d0ee2f909971144f12ca32651cd70cbee1117cddfb3b3b338152f35b5f366003190112606d57807f139c2898040ef16910dc9f44dc697df79363da767d8bc92f2e310312b816e46d60209252f3fea26469706673582212208605ac8b97b6fd9daac8e1240fae6b43881089cb84a5f8319a9cd50e31b491a164736f6c63430008160033","linkReferences":{}},"methodIdentifiers":{"PAUSE_ROLE()":"389ed267","SELLER_ROLE()":"dbe4613d","TEAM_ROLE()":"49d5e604"},"id":2}